{
  "address": "0x76F2F7f46354D9Ccb64460086512f0C6c5dd4759",
  "abi": [
    {
      "inputs": [
        {
          "internalType": "address",
          "name": "_tokenA",
          "type": "address"
        },
        {
          "internalType": "address",
          "name": "_tokenB",
          "type": "address"
        },
        {
          "internalType": "uint256",
          "name": "_amountA",
          "type": "uint256"
        },
        {
          "internalType": "uint256",
          "name": "_amountB",
          "type": "uint256"
        }
      ],
      "name": "addLiquidity",
      "outputs": [],
      "stateMutability": "nonpayable",
      "type": "function"
    },
    {
      "inputs": [
        {
          "internalType": "address",
          "name": "_token",
          "type": "address"
        },
        {
          "internalType": "uint256",
          "name": "_amount",
          "type": "uint256"
        }
      ],
      "name": "addLiquidityETH",
      "outputs": [],
      "stateMutability": "payable",
      "type": "function"
    }
  ],
  "transactionHash": "0x911f30ed786a9b28c7074ea6b9a80383416d0020a3ce46c45f640a675f30d7b6",
  "args": [],
  "numDeployments": 1,
  "solcInputHash": "d113db3ee207a8d60020e53dae5e5bb6",
  "bytecode": "0x608060405234801561001057600080fd5b506105cf806100206000396000f3fe6080604052600436106100295760003560e01c80637282d5481461002e578063cf6c62ea14610043575b600080fd5b61004161003c3660046104d6565b610063565b005b34801561004f57600080fd5b5061004161005e366004610500565b610207565b6040516323b872dd60e01b8152336004820152306024820152604481018290526001600160a01b038316906323b872dd906064016020604051808303816000875af11580156100b6573d6000803e3d6000fd5b505050506040513d601f19601f820116820180604052508101906100da9190610542565b5060405163095ea7b360e01b8152737a250d5630b4cf539739df2c5dacb4c659f2488d6004820152602481018290526001600160a01b0383169063095ea7b3906044016020604051808303816000875af115801561013c573d6000803e3d6000fd5b505050506040513d601f19601f820116820180604052508101906101609190610542565b5060405163f305d71960e01b81526001600160a01b03831660048201526024810182905260016044820181905260648201523060848201524260a4820152737a250d5630b4cf539739df2c5dacb4c659f2488d9063f305d7199060c4016060604051808303816000875af11580156101dc573d6000803e3d6000fd5b505050506040513d601f19601f82011682018060405250810190610200919061056b565b5050505050565b6040516323b872dd60e01b8152336004820152306024820152604481018390526001600160a01b038516906323b872dd906064016020604051808303816000875af115801561025a573d6000803e3d6000fd5b505050506040513d601f19601f8201168201806040525081019061027e9190610542565b506040516323b872dd60e01b8152336004820152306024820152604481018290526001600160a01b038416906323b872dd906064016020604051808303816000875af11580156102d2573d6000803e3d6000fd5b505050506040513d601f19601f820116820180604052508101906102f69190610542565b5060405163095ea7b360e01b8152737a250d5630b4cf539739df2c5dacb4c659f2488d6004820152602481018390526001600160a01b0385169063095ea7b3906044016020604051808303816000875af1158015610358573d6000803e3d6000fd5b505050506040513d601f19601f8201168201806040525081019061037c9190610542565b5060405163095ea7b360e01b8152737a250d5630b4cf539739df2c5dacb4c659f2488d6004820152602481018290526001600160a01b0384169063095ea7b3906044016020604051808303816000875af11580156103de573d6000803e3d6000fd5b505050506040513d601f19601f820116820180604052508101906104029190610542565b5060405162e8e33760e81b81526001600160a01b03808616600483015284166024820152604481018390526064810182905260016084820181905260a48201523060c48201524260e4820152737a250d5630b4cf539739df2c5dacb4c659f2488d9063e8e3370090610104016060604051808303816000875af115801561048d573d6000803e3d6000fd5b505050506040513d601f19601f820116820180604052508101906104b1919061056b565b50505050505050565b80356001600160a01b03811681146104d157600080fd5b919050565b600080604083850312156104e957600080fd5b6104f2836104ba565b946020939093013593505050565b6000806000806080858703121561051657600080fd5b61051f856104ba565b935061052d602086016104ba565b93969395505050506040820135916060013590565b60006020828403121561055457600080fd5b8151801515811461056457600080fd5b9392505050565b60008060006060848603121561058057600080fd5b835192506020840151915060408401519050925092509256fea2646970667358221220e64749fe7b8d7ab896cc1bac129dfeeb1a31992b1bfe5a3c3178309f56d568b664736f6c63430008110033",
  "devdoc": {
    "kind": "dev",
    "methods": {},
    "version": 1
  },
  "userdoc": {
    "kind": "user",
    "methods": {},
    "version": 1
  },
  "storageLayout": {
    "storage": [],
    "types": null
  }
}